:020000040000fa
:080000000002040000000000f2
:020000040000fa
:10000800ea020000ea020000ea020000ea02000038
:10001800ea020000ea020000ea020000ea02000028
:10002800ea020000ea020000ea0200009a02000068
:10003800ea020000ea020000ea020000ea02000008
:10004800a2020000ea020000ea020000ba02000070
:10005800ea020000ea020000ea020000ea020000e8
:10006800ea020000ea020000ea020000ea020000d8
:10007800ea020000ea020000ea020000ea020000c8
:10008800ea020000ea020000ea020000aa020000f8
:10009800b2020000ea020000ce020000e202000004
:1000a800ea020000ea020000ea020000ea02000098
:1000b800ea020000ea020000ea020000ea02000088
:1000c800ea020000ea020000ea020000ea02000078
:1000d800ea020000ea020000ea020000ea02000068
:1000e800ea020000ea020000ea020000ea02000058
:1000f800ea020000ea020000ea020000ea02000048
:10010800ea020000ea020000ea020000ea02000037
:10011800ea020000ea020000ea020000ea02000027
:10012800ea020000ea020000ea020000ea02000017
:10013800ea020000ea020000ea020000ea02000007
:10014800ea020000ea020000ea020000ea020000f7
:10015800ea020000ea020000ea020000ea020000e7
:10016800ea020000ea020000ea020000ea020000d7
:10017800ea020000ea020000ea020000ea020000c7
:10018800ea020000ea020000ea020000ea020000b7
:10019800ea020000ea020000ea020000ea020000a7
:1001a800ea020000ea020000ea020000ea02000097
:1001b800ea020000ea020000ea020000ea02000087
:1001c800ea020000ea020000ea020000ea02000077
:1001d800ea020000ea020000ea020000ea02000067
:1001e800ea020000ea020000ea020000ea02000057
:0801f800ea020000ea02000027
:020000040000fa
:10020800ea020000ea020000ea020000ea02000036
:10021800ea020000ea020000ea020000ea02000026
:10022800ea020000ea020000ea0200009a02000066
:10023800ea020000ea020000ea020000ea02000006
:10024800a2020000ea020000ea020000ba0200006e
:10025800ea020000ea020000ea020000ea020000e6
:10026800ea020000ea020000ea020000ea020000d6
:10027800ea020000ea020000ea020000ea020000c6
:10028800ea020000ea020000ea020000aa020000f6
:10029800b2020000ea020000ce020000e202000002
:1002a800ea020000ea020000ea020000ea02000096
:1002b800ea020000ea020000ea020000ea02000086
:1002c800ea020000ea020000ea020000ea02000076
:1002d800ea020000ea020000ea020000ea02000066
:1002e800ea020000ea020000ea020000ea02000056
:1002f800ea020000ea020000ea020000ea02000046
:10030800ea020000ea020000ea020000ea02000035
:10031800ea020000ea020000ea020000ea02000025
:10032800ea020000ea020000ea020000ea02000015
:10033800ea020000ea020000ea020000ea02000005
:10034800ea020000ea020000ea020000ea020000f5
:10035800ea020000ea020000ea020000ea020000e5
:10036800ea020000ea020000ea020000ea020000d5
:10037800ea020000ea020000ea020000ea020000c5
:10038800ea020000ea020000ea020000ea020000b5
:10039800ea020000ea020000ea020000ea020000a5
:1003a800ea020000ea020000ea020000ea02000095
:1003b800ea020000ea020000ea020000ea02000085
:1003c800ea020000ea020000ea020000ea02000075
:1003d800ea020000ea020000ea020000ea02000065
:1003e800ea020000ea020000ea020000ea02000055
:0803f800ea020000ea02000025
:020000040000fa
:10040000cf8120000e7f24000e0188000000000034
:10041000000020000000e000020032000001200087
:10042000200288000c000700207921000100200034
:1004300011000700000020000000e0000200320070
:100440000000020000000000581702000000000039
:100450000040da000000fe004440a9000000200037
:100460000000e0000300320000002000a00188002e
:100470004440a80000000600910188008000780038
:100480000000eb0015003700e280400032a0b4000d
:100490009101ba00e280400032a0b4009102ba009b
:1004a000e280400032a0b4000002eb00472bde00e7
:1004b000f507b200602ce10004003a000059eb009f
:1004c0008301e900fdff3e00040037006128e100e0
:1004d000010032000082eb00040007001101ba00a5
:1004e0000200e000e8ff3a00000006003159ba00bf
:1004f0008301e9000c0032002159ba008301e900b0
:10050000080032000400e00003003a00e2804000ee
:1005100032a0b400f5ff370011d9ba008301e90019
:10052000faff3a008100e800e180400032a0b40008
:10053000000006000000fa008460a9000080fa00b4
:10054000004006000000fa008500a9000080fa00c3
:10055000004006000000fa008760a9000080fa0051
:10056000004006000000fa008780a9000080fa0021
:1005700000400600841f78000200fa009560a90080
:100580008560a90034118000044f78009560a800b0
:100590000080fa004f02780000400600841f7800b7
:1005a0000200fa0097c0a90087c0a900b41180001a
:1005b000044f780097c0a8000080fa004f0278002e
:1005c000004006000000fa0087e0a9000080fa0061
:1005d000004006000040da000000fe00839f680033
:1005e0000100e00002003d0060001000e080180003
:1005f0000300e00002003d0060011100e0811900ed
:10060000050007004f00e00002003b006000100002
:10061000e0801800000006006022b80006022000fa
:100620000000d0008180d2000482d2008582d200f6
:100630000000a0000202520083825a000300310031
:100640000202420083824a000000a1000603e90082
:10065000f3ff3a0000000600889fbe008a9fbe009c
:100660003004be002005be000404440085844c0014
:1006700006054d0087854d000898be000a90be0013
:100680000440e10005c8e10006d0e10007d8e10020
:1006900002003100680040001008e8004f05be006d
:1006a0004f04be00000006001000fa00889fbe0044
:1006b0008a9fbe00110020000605be000404be0093
:1006c0003002be002003be00c4b79f00d5b79f0014
:1006d000e6b79f00f7b79f000802520089825a00d0
:1006e0000a035b008b835b0084bf9f0095bf9f0064
:1006f000a6bf9f00b7bf9f000498be000698be002b
:100700004fb29700dfb297006fb39700ffb3970027
:100710000820e10009a8e1000ab0e1000bb8e100ff
:10072000010039008000eb004f05be00108810006a
:100730004f04be000080fa00000006001400fa001a
:10074000889fbe008a9fbe008c9fbe000006eb0003
:100750003e000700ccb79f00bcb79f00acb79f001e
:100760009cb79f008cb79f000605be000404be0026
:100770000d0420004fb39700bfb2970086034300db
:100780002fb29700e00f530004003d003d0007002a
:100790000f004000b0ff07000300370039000700da
:1007a0000f004000c0ff0700cfb2970095bf9f0029
:1007b000e08f5200090035002b00070014002000d4
:1007c000050020006033b8000000720081807200d4
:1007d00002017300838173001c0007000c06e8000f
:1007e0008d0f5600e3ff3a001fba9700e00f52004a
:1007f00005003d000802be000a03be0000fe2f00f7
:100800000f00400094ff07004faa9700e00f52002e
:1008100008003a000fb497009fb497002fb59700d7
:10082000bfb59700d8b79f00e9b79f00fab79f0000
:100830008bbf9f000c0007004f06be004f05be0097
:100840004f04be000080fa0000000600010007000f
:100850000000060090b79f00a1b79f00b2b79f00ad
:10086000c3b79f000000060001000700000006005b
:100870001fb09700afb097003fb19700cfb197007e
:10088000000006004f2bde00f9ff0700868373008f
:10089000858242004f23de00a7b79f008682720048
:1008a0000402420095b79f00ffaa97004f2bde007d
:1008b000858242000602720084b79f006faa9700eb
:1008c0004f23de000402420086827200f5af9f00d3
:1008d0004f18de0000027200e5ff0700e4af9f0042
:1008e00000004000818048000201490083814900e6
:1008f0000802be000a03be00d6ff070000fe2f005c
:1009000000000600881f780018002000881f78006b
:100910008aff07008f87e9004f0478000000060077
:10092000801feb0085ff07008f87e90000000600ad
:10093000889fbe008a9fbe00e00f5000e08f5800e5
:10094000e00f5900e08f59000c003d006044b800f2
:100950006055b8000000540081805c0002015d0019
:1009600083815d00180020001500070008003d008d
:10097000180007000004eb00050037000004eb003e
:100980000f00070002003d001200070018002000c1
:10099000dcff0700e00f5400060032006022b800c0
:1009a0006033b8000000520081805a0002015b00f1
:1009b00083815b004f05be004f04be0000000600af
:1009c000e00f5200e08f5a00e00f5b00e08f5b0009
:1009d000000006006044b8006055b80004025400ee
:1009e00085825c0006035d0087835d0000000600d1
:1009f000889fbe008a9fbe008c1f7800e00f5000c9
:100a0000e08f5800e00f5900e08f59000d003d00c5
:100a10006044b8006055b8001c002000000054007d
:100a200081805c0002015d0083815d000820e1009f
:100a300009a8e1000ab0e1000bb8e1000d003d009b
:100a4000080037000006eb00e00f5200e08f5a006c
:100a5000e00f5b00e08f5b0006003d006044b800e3
:100a60006055b8000402540085825c0006035d00f6
:100a700087835d00aaff0700e00f560006003200e2
:100a80006022b8006033b8000000520081805a0034
:100a900002015b0083815b004f0678004f05be00ba
:080aa0004f04be000000060037
:020000040000fa
:100aa8000600fa00004f7800120798002307980004
:100ab8001e427800e14f520025003a001e009000c7
:100ac800ae0090004b000700000278004411880037
:100ad80021e2a90022a2a900141180000460a1004b
:100ae8000470a100141188002362a90023c2a90080
:100af80023a2a90023e2a90022c2a90022e2a90098
:100b08002002a900041180000410a1000420a10003
:100b1800041188002062a8002082a90020a2a90050
:100b280020c2a90020e2a900041180000480a100cd
:100b38000490a100041188002162a9002182a90063
:100b480021a2a90021e2a8002342a800270037001b
:100b58001e427800e34f520024003a001e00900025
:100b6800ae0090002300070000027800c41188003e
:100b780031e2a90032a2a900941180000460a1000a
:100b88000470a100941188003362a90033c2a9003f
:100b980033a2a80033e2a90032c2a90032e2a900b8
:100ba8003002a900841180000410a1000420a100d3
:100bb800841188003062a8003082a90030a2a90000
:100bc80030c2a90030e2a900841180000480a1008d
:100bd8000490a100841188003162a9003182a90023
:100be80031a2a90031e2a8003342a8000080fa002f
:100bf800000006000400fa00889fbe008a9fbe001d
:100c0800008fbe001e02be0006d420003700200060
:100c1800860f5200878f5a004200320006d4200007
:100c280037002000860f5200878f5a001b003e00b5
:100c380006b0240007002000860f5200878f5a0054
:100c48003e00320006b0240007002000860f520044
:100c5800878f5a0006003e00065822000700200031
:100c6800860f5200878f5a0036003200370037004f
:100c780006102e0007002000860f5200878f5a00aa
:100c88002c00320006202c0017002000860f52008e
:100c9800878f5a00250032002c00370006a8210053
:100ca80067002000860f5200878f5a001900320013
:100cb80006a8210067002000860f5200878f5a007f
:100cc80006003e0006092d0037002000860f52005e
:100cd800878f5a00110032001c00370006122a00c4
:100ce80077002000860f5200878f5a0007003200d5
:100cf80006242400f7002000860f5200878f5a0030
:100d080012003a00940020001d0037003401200032
:100d18001b003700840120001900370074022000ee
:100d28001700370014032000150037006405200061
:100d380013003700d40a2000110037008420200057
:100d48000f003700144120000d0037001e04be00bc
:100d58000005eb008005eb000802be000a03be0098
:100d680000682900810920006011b800eefe070024
:100d78000203be000002be00040278000402e9007b
:100d8800040078004f05be004f04be000080fa0042
:100d9800000006000600fa00004f780012079800cd
:100da800230798001e427800e14f520008003a00dd
:100db80021e2a9001e009000ae0090008dff070000
:100dc800000278004411880021e2a80007003700db
:100dd80031e2a9001e009000ae00900085ff0700d8
:100de80000027800c411880031e2a8000080fa00ef
:100df800000006000400fa00204798002e429000e8
:100e0800e34f52000b003a0002003700b411800093
:100e1800044f78009411800061026200e00f5200d4
:100e2800faff3a000800370034118000044f7800b8
:100e38000100370000000000141180006102620008
:100e4800e00f5200f8ff3a000080fa0000000600a8
:100e58000200fa00004f7800114798001e427800ff
:100e6800e14f52000a003a0000000000151180000e
:100e78000420200004826200e00f5200fbff3a00c9
:100e88001e4290000482fb00241188000c003700e9
:100e98001e427800e34f520009003a0000000000ab
:100ea800951180000420200004826200e00f5200a7
:100eb800fbff3a001e4290000482fb00a411880048
:100ec8000080fa00000006000400fa00004f7800d5
:100ed800110798001e0290001442780084407800a0
:100ee8001e407800daff07001e02900014427800c6
:100ef8000482fb000402ea004f22de00044278006c
:100f08009e0290008502e80015079800e04f520005
:100f1800f0ff3a000080fa00000006000800fa001e
:100f28002047980021079800320798000002eb003c
:100f3800040f7800160037002e429000e14f52004f
:100f480008003a001e027800ae02900004824200b7
:100f5800144278008440780010c0b300bcff07003a
:100f68000a0037002e429000e34f520007003a0073
:100f78001e027800ae0290000482420014427800fb
:100f88008440780030c0b300b1ff07001e0fe800ae
:100f98009e0278003e029000848f5200e6ff3900de
:100fa8000080fa00000006000e00fa0060079800b2
:100fb8000002eb00040f78006e029000e00f520070
:100fc80008003d006e0290000402ea0064079800e1
:100fd800f48020001e024200d5c2b300054a780002
:100fe8001e0fe800ee0290000471220011000900b3
:100ff8008402d80000027800140798009e0290002e
:10100800048f2d0004aab900840278006e029000b3
:1010180084824200843e2000110009008402d80026
:1010280000027800240798009e029000048f2d008b
:1010380004aab90004037800ae02900084c12f000e
:1010480004aab90004027800840243006e029000ea
:101058008482420044062000110009008402d8005e
:1010680000027800340798009e029000048f2d003b
:1010780004aab90004037800ae02900084c12f00ce
:1010880004aab90004027800840243006e029000aa
:1010980004834200be029000c4f92f0004aab900dc
:1010a8000402780084024300a40020001100090013
:1010b8008402d80000027800440798009e0290003d
:1010c800048f2d0004aab90004037800ae02900032
:1010d80084c12f0004aab9000402780084024300e6
:1010e8006e02900004834200ce02900064ff2f003d
:1010f80004aab90084037800be029000c4f92f0046
:1011080004aab900040278000482430004024300e0
:10111800540798001e029000044278000443b0006f
:1011280084427800f48020001e024200054a7800bc
:101138001e0fe8002e029000044278000443b0001d
:1011480084427800f48020001e024200054a78009c
:101158001e0fe8003e029000044278000443b000ed
:1011680084427800f48020001e024200054a78007c
:101178001e0fe8004e029000044278000443b000bd
:1011880084427800f48020001e024200054a78005c
:101198001e0fe8005e029000044278000443b0008d
:1011a80084427800f48020001e024200054a78003c
:1011b8001e0fe800f48020001e0242008042eb006f
:1011c800054a78001e0fe800f4802000040078002b
:1011d8000080fa00000006002e00fa00889fbe007a
:1011e80050179800611798000002eb00040f780070
:1011f8005e129000ee129000e00f5200e08f5a004d
:101208000b003d005e129000ee129000600212008a
:10121800e0821a005417980065179800048020008f
:101228001e024200d5c2b300054a78001e0fe8002e
:101238005e129000ee12900002a02c00a3b92300c9
:101248000400be00e3fc07000002be00140798007b
:10125800250798001e029000ae0290000660230049
:1012680006abb9000603780057462c0007a0b90062
:101278008003780007034300840278000460230099
:10128800042ab80005034300860278005e13900024
:10129800ee1390000402430085824b0002102e00da
:1012a800535f20000400be00cafc07000002be0015
:1012b80034079800450798001e029000ae0290007f
:1012c8000660230006abb9000600780056462c00dd
:1012d80006a3b900060378000600400084027800df
:1012e80004602300042bb800070040008003780046
:1012f8003e029000ce02900000f0210000a8b90044
:1013080000007800a1a02f0001a1b9008200780098
:10131800010040008402780004f02100042ab8008b
:1013280005004000800278000603420087834a00d7
:101338005e129000ee1290000602420087824a0078
:1013480002682900830920000400be00a1fc0700f0
:101358000002be0054079800650798001e0290001e
:10136800ae0290000660230006abb90006007800c4
:1013780056462c0006a3b900060378000600400074
:101388008402780004602300042bb80007004000a2
:10139800800378003e029000ce02900000f0210009
:1013a80000a8b90000007800a1a02f0001a1b90091
:1013b80082007800010040008402780004f02100d7
:1013c800042ab800050040008002780006034200a5
:1013d80087834a005e129000ee12900006004200d9
:1013e80087804a005e029000ee0290000698260070
:1013f80006abb9000603780077f62f0007a1b900fd
:1014080082037800070343008402780004982600ca
:10141800042ab8000503430086027800000242004f
:1014280081824a0002242400f30020000400be0048
:1014380068fc07000002be0074079800050f9800ba
:101448001e029000ae0290000660230006abb900b1
:101458000600780056462c0006a3b900060378005b
:10146800060040008402780004602300042bb800c2
:1014780007004000800378003e029000ce029000f2
:1014880000f0210000a8b90000007800a1a02f00fa
:1014980001a1b900820078000100400084027800b0
:1014a80004f02100042ab8000500400080027800fa
:1014b8000603420087834a005e129000ee129000f5
:1014c8000601420087814a007e0290008e0a900041
:1014d80006dc2b0006abb9000600780006ff2f00db
:1014e80006a3b900060378000600400084027800cd
:1014f80004dc2b00042bb8000700400080037800b0
:101508005e029000ee0290000098260000a8b90044
:101518000000780071f62f0001a4b9008800780057
:10152800010040008402780004982600042ab800cc
:1015380005004000800278000602420087824a00c7
:101548000202420083824a00026a28001300200037
:101558000400be001ffc07000002be00140f980024
:10156800250f98001e029000ae029000066023002e
:1015780006abb9000600780056462c0006a3b90051
:101588000603780006004000840278000460230007
:10159800042bb80007004000800378003e0290004a
:1015a800ce02900000f0210000a8b90000007800e9
:1015b800a1a02f0001a1b90082007800010040001d
:1015c8008402780004f02100042ab80005004000d5
:1015d800800278000603420087834a005e1290006a
:1015e800ee1290000601420087814a007e029000b8
:1015f8008e0a900006dc2b0006abb90006007800c6
:1016080006ff2f0006a3b900060378000600400075
:101618008402780004dc2b00042bb800070040008b
:10162800800378005e029000ee0290000098260089
:1016380000a8b9000000780071f62f0001a4b900d5
:101648008800780001004000840278000498260091
:10165800042ab80005004000800278000602420013
:1016680087824a000200420083804a001e0a9000d6
:10167800ae0a90000696270006abb900060378006c
:10168800e7ff2f0007a1b900820378000703430092
:101698008402780004962700042ab8000503430052
:1016a800860278000002420081824a00027122000c
:1016b800030020000400be00c6fb07000002be00b5
:1016c800340f9800450f98001e029000ae0290005b
:1016d8000660230006abb9000600780056462c00c9
:1016e80006a3b900060378000600400084027800cb
:1016f80004602300042bb800070040008003780032
:101708003e029000ce02900000f0210000a8b9002f
:1017180000007800a1a02f0001a1b9008200780084
:10172800010040008402780004f02100042ab80077
:1017380005004000800278000603420087834a00c3
:101748005e129000ee1290000601420087814a0066
:101758007e0290008e0a900006dc2b0006abb900d2
:101768000600780006ff2f0006a3b90006037800dc
:10177800060040008402780004dc2b00042bb8002b
:1017880007004000800378005e029000ee0290009f
:101798000098260000a8b9000000780071f62f0014
:1017a80001a4b90088007800010040008402780094
:1017b80004982600042ab80005004000800278003a
:1017c8000602420087824a000201420083814a00e1
:1017d8003e0a9000ce0a9000068f2d0006abb90095
:1017e800060078000083eb0006a3b9000603780022
:1017f8000600400084027800048f2d00042bb800f6
:1018080007004000800378001e0a9000ae0a90008e
:101818000096270000a8b90000007800e1ff2f001b
:1018280001a4b90088007800010040008402780013
:1018380004962700042ab8000500400080027800ba
:101848000602420087824a000202420083824a005e
:10185800823e2000030020000400be005dfb07005c
:101868000002be00540f9800650f98001e029000f9
:10187800ae0290000660230006abb90006007800af
:1018880056462c0006a3b90006037800060040005f
:101898008402780004602300042bb800070040008d
:1018a800800378003e029000ce02900000f02100f4
:1018b80000a8b90000007800a1a02f0001a1b9007c
:1018c80082007800010040008402780004f02100c2
:1018d800042ab80005004000800278000603420090
:1018e80087834a005e129000ee12900006014200c3
:1018f80087814a007e0290008e0a900006dc2b0049
:1019080006abb9000600780006ff2f0006a3b90051
:1019180006037800060040008402780004dc2b00ef
:10192800042bb80007004000800378005e02900096
:10193800ee0290000098260000a8b9000000780088
:1019480071f62f0001a4b90088007800010040005a
:101958008402780004982600042ab8000500400094
:10196800800278000602420087824a000201420093
:1019780083814a003e0a9000ce0a9000068f2d000f
:1019880006abb900060078000083eb0006a3b90097
:10199800060378000600400084027800048f2d00ba
:1019a800042bb80007004000800378001e0a90004e
:1019b800ae0a90000096270000a8b9000000780041
:1019c800e1ff2f0001a4b900880078000100400061
:1019d8008402780004962700042ab8000500400015
:1019e800800278000602420087824a000200420014
:1019f80083804a005e0a9000ee0a900086c12f009c
:101a080006abb900060378008083eb0007a1b90094
:101a180082037800070343008402780084c12f0002
:101a2800042ab80005034300860278000002420039
:101a380081824a0042062000030020000400be0004
:101a4800e4fa07000002be00740f9800051798001a
:101a58001e029000ae0290000660230006abb9009b
:101a68000600780056462c0006a3b9000603780045
:101a7800060040008402780004602300042bb800ac
:101a880007004000800378003e029000ce029000dc
:101a980000f0210000a8b90000007800a1a02f00e4
:101aa80001a1b9008200780001004000840278009a
:101ab80004f02100042ab8000500400080027800e4
:101ac8000603420087834a005e129000ee129000df
:101ad8000601420087814a007e0290008e0a90002b
:101ae80006dc2b0006abb9000600780006ff2f00c5
:101af80006a3b900060378000600400084027800b7
:101b080004dc2b00042bb800070040008003780099
:101b18005e029000ee0290000098260000a8b9002e
:101b28000000780071f62f0001a4b9008800780041
:101b3800010040008402780004982600042ab800b6
:101b480005004000800278000602420087824a00b1
:101b58000201420083814a003e0a9000ce0a9000aa
:101b6800068f2d0006abb900060078000083eb0055
:101b780006a3b90006037800060040008402780036
:101b8800048f2d00042bb800070040008003780064
:101b98001e0a9000ae0a90000096270000a8b9001f
:101ba80000007800e1ff2f0001a4b9008800780048
:101bb800010040008402780004962700042ab80037
:101bc80005004000800278000602420087824a0031
:101bd8000201420083814a007e0a90008e12900022
:101be800c6f92f0006abb900060078000083eb00a9
:101bf80006a3b900060378000600400084027800b6
:101c0800c4f92f00042bb8000700400080037800b7
:101c18005e0a9000ee0a900080c12f0000a8b9006b
:101c2800000078008080eb0001a4b90088007800eb
:101c3800010040008402780084c12f00042ab80003
:101c480005004000800278000602420087824a00b0
:101c58000202420083824a00a20020000300200002
:101c68000400be005bfa07000002be0014179800cb
:101c7800251798001e029000ae029000066023000f
:101c880006abb9000600780056462c0006a3b9003a
:101c980006037800060040008402780004602300f0
:101ca800042bb80007004000800378003e02900033
:101cb800ce02900000f0210000a8b90000007800d2
:101cc800a1a02f0001a1b900820078000100400006
:101cd8008402780004f02100042ab80005004000be
:101ce800800278000603420087834a005e12900053
:101cf800ee1290000601420087814a007e029000a1
:101d08008e0a900006dc2b0006abb90006007800ae
:101d180006ff2f0006a3b90006037800060040005e
:101d28008402780004dc2b00042bb8000700400074
:101d3800800378005e029000ee0290000098260072
:101d480000a8b9000000780071f62f0001a4b900be
:101d5800880078000100400084027800049826007a
:101d6800042ab800050040008002780006024200fc
:101d780087824a000201420083814a003e0a90009d
:101d8800ce0a9000068f2d0006abb9000600780039
:101d98000083eb0006a3b9000603780006004000a4
:101da80084027800048f2d00042bb800070040003f
:101db800800378001e0a9000ae0a90000096270063
:101dc80000a8b90000007800e1ff2f0001a4b900c5
:101dd80088007800010040008402780004962700fb
:101de800042ab8000500400080027800060242007c
:101df80087824a000201420083814a007e0a9000dd
:101e08008e129000c6f92f0006abb90006007800c4
:101e18000083eb0006a3b900060378000600400023
:101e280084027800c4f92f00042bb8000700400092
:101e3800800378005e0a9000ee0a900080c12f00af
:101e480000a8b900000078008080eb0001a4b90068
:101e580088007800010040008402780084c12f00c7
:101e6800042ab800050040008002780006024200fb
:101e780087824a000200420083804a001e129000b6
:101e8800ae12900066ff2f0006abb900060378007b
:101e98008083eb0007a1b9008203780007034300a1
:101ea8008402780064ff2f00042ab8000503430069
:101eb800860278000002420081824a0034179800a6
:101ec800451798001e029000ae0290000442780068
:101ed8000443b00084427800048020001e024200bf
:101ee800054a78001e0fe8003e029000ce029000de
:101ef800044278000443b000844278000480200043
:101f08001e024200054a78001e0fe8005e0290009b
:101f1800ee029000044278000443b0008442780046
:101f2800048020001e024200054a78001e0fe800c7
:101f38007e0290008e0a9000044278000443b000ac
:101f480084427800048020001e024200054a78007e
:101f58001e0fe8001e0a9000ae0a900004427800a6
:101f68000443b00084427800048020001e0242002e
:101f7800054a78001e0fe8003e0a9000ce0a90003d
:101f8800044278000443b0008442780004802000b2
:101f98001e024200054a78001e0fe8005e0a900003
:101fa800ee0a9000044278000443b00084427800ae
:101fb800048020001e024200054a78001e0fe80037
:101fc8007e0a90008e129000044278000443b0000c
:101fd80084427800048020001e024200054a7800ee
:101fe8001e0fe8001e129000ae1290000442780006
:101ff8000443b00084427800048020001e0242009e
:10200800054a78001e0fe8003e129000ce1290009c
:10201800044278000443b000844278000480200021
:102028001e024200054a78001e0fe80004802000c6
:102038001e0242008042eb00054a78001e0fe800ad
:1020480004802000040078004f04be000080fa00dd
:10205800000006000200fa00000f78001e00780059
:10206800d1fb0700000278008400780010c0b3009c
:1020780095fb07000080fa00000006000400fa0043
:10208800008fbe001e00be0053fc0700000278004f
:102098008400780010c0b3008bfb07000080fa00b2
:1020a800000006000000fa0064000700280007008e
:1020b800170007004700070093000700c200070049
:1020c8005501070002202c001300200010c0b300a7
:1020d80073fa070002122a007300200030c0b30010
:1020e8006ffa0700f41e2700757c2100462c270094
:1020f80017e8230000a8210061002000d70207008c
:1021080005e1a8001fe1a8000080fa000000060011
:102118000000fa0005e1a9000421a90004c1a900f2
:10212800240880000440a0000450a000240888006f
:102138000002eb0004088800e4302000140888003e
:102148008460a9009460a8000080fa0000000600de
:102158000000fa001fe1a9001e21a9001e61a900c4
:102168001ec1a900f40880000440a0000450a0008b
:10217800f40888000002eb00a4088800b46120007d
:10218800d40888008760a9009760a8000080fa003a
:10219800000006000000fa0021e1a9002021a900a2
:1021a80020c1a900040980000440a0000450a00038
:1021b800040988000002eb00a408880084a1270015
:1021c800d40888008780a9009780a8000080fa00ba
:1021d800000006000000fa0013e1a90011e1a900bf
:1021e8001061a8001021a90010c1a900840880006e
:1021f8000440a0000450a000840888000002eb00fe
:10220800540888000002eb003408880024002000ed
:1022180074088800c4272600640888008500a9007f
:102228009500a8000080fa00000006000000fa00ef
:1022380011e1a8000080fa00000006000000fa0082
:10224800453a800004fc2f0004826200443a88006a
:10225800143a80000480a1000490a10004a0a10009
:10226800143a88004207a80000000000143a8000d1
:1022780061026200e00f5200fcff3a00640920008e
:10228800343a8800243a80000460a1000470a10058
:10229800243a8800253a800004fe2f000482620058
:1022a8005400b300243a8800243a800004c0a100f6
:1022b80004d0a10004e0a100243a8800143a800068
:1022c8000480a0000490a10004a0a100143a880092
:1022d8004207a80000000000143a80006102620072
:1022e800e00f5200fcff3a0000000000153a8000a1
:1022f8000402200004826200e00f5200fbff32005b
:102308000080fa00000006000000fa002535800071
:1023180004fe2f00048262005400b30024358800b4
:102328003536800004fe2f00048262003400b300ba
:10233800343688003535800004fe2f0004826200a0
:102348003400b300343588001536800004fe2f00b1
:10235800048262005400b30014368800e53480001b
:10236800f40f2e00848262000480210005027200ae
:10237800e4348800e534800004fe2f000482620003
:102388009401b300e434880005358000f40f2e0072
:10239800848262000460210005027200043588000e
:1023a8000535800004fe2f00048262007401b3002a
:1023b8000435880000482800e1012000c902070010
:1023c8000080fa00000006000000fa0021e3a900de
:1023d8002c03a8002c23a8002c43a8002c63a800d9
:1023e8002c83a8002ca3a8002cc3a8002ce3a800c9
:1023f8002d03a800c801a900c881a900c821a90007
:10240800c8a1a900c841a900c8c1a900c002a90063
:102418006040a9006840a900c022a9006060a90026
:102428006860a900c042a800c062a80063a0a90013
:102438006ba0a900c082a8006000a9006800a900dc
:10244800c0e2a900c102a800c122a800c142a90097
:10245800c802a9006080a9006880a900c822a90054
:1024680060a0a90068a0a900c842a90060c0a9008e
:1024780068c0a900c862a80060e0a90068e0a900d7
:10248800c882a8006020a9006820a900c8a2a800e6
:102498006360a9006b60a900c8c2a9006300a90015
:1024a8006b00a900c8e2a90062e0a9006ae0a900df
:1024b800c902a90062c0a9006ac0a900c922a9006e
:1024c80062a0a9006aa0a900c942a9006200a900e7
:1024d8006a00a900c962a90061e0a90069e0a90031
:1024e800c982a90061c0a90069c0a900c9a2a90040
:1024f80061a0a90069a0a900c9c2a9006180a900ba
:102508006980a900c9e2a9006160a9006960a90001
:10251800d002a8006100a9006900a900d022a80083
:102528006120a9006920a900d042a8006140a90043
:102538006940a900d062a8006380a9006b80a90047
:10254800d082a8006320a9006b20a900d0a2a9000e
:102558006340a9006b40a900d0c2a8006240a9004e
:102568006a40a900d0e2a8006220a9006a20a90058
:10257800d102a8006280a9006a80a900d122a8001f
:102588006260a9006a60a900c402a900c422a90067
:10259800c462a900c482a900c4e2a900c502a900b6
:1025a800c522a900c542a900cc02a900cc22a900d5
:1025b800cc42a900cc62a900cc82a900cca2a90077
:1025c800ccc2a900cce2a900cd02a900cd22a90065
:1025d800cd42a900cd62a900cd82a900cda2a90053
:1025e800cdc2a900cde2a900d402a900d422a90035
:1025f800d442a900d462a900d482a900d4a2a90017
:10260800d4c2a900d4e2a900d502a900d522a90004
:102618000080fa00000006000000fa0083e0a9002c
:102628008200a90085c0a90085a0a9008580a9000d
:102638008560a9008540a9008520a9008500a9001a
:1026480084e0a90084c0a90084a0a9008480a9000e
:102658008460a9008440a9008420a9008400a900fe
:1026680087e0a90087c0a90087a0a9008780a900e2
:102678008760a9008740a9008720a9008700a900d2
:1026880086e0a90086c0a9008680a9008660a90006
:102698008640a9008620a9008600a90089c0a90053
:1026a80089a0a9008880a9008860a9008840a9009d
:1026b8008820a9008800a9008be0a9008bc0a90088
:1026c8008ba0a9008b40a9008b20a9008de0a90050
:1026d8008dc0a9008d60a9008d40a9008d20a9009a
:1026e8008cc0a9008ca0a9008c80a9008c60a900ce
:1026f8008c40a9008c20a9002405800004c0a100fa
:1027080004d0a10004e0a10024058800240580006d
:102718000480a1000490a10004a0a1002405880061
:10272800240580000440a1000450a1000460a10019
:1027380024058800240580000400a1000410a100dd
:102748000420a100240588003405800004c0a100ed
:1027580004d0a10004e0a1003405880034058000fd
:102768000480a1000490a10004a0a1003405880001
:10277800340580000440a1000450a1000460a100b9
:1027880034058800340580000400a1000410a1006d
:102798000420a100340588004405800004c0a1007d
:1027a80004d0a10004e0a10044058800440580008d
:1027b8000480a1000490a10004a0a10044058800a1
:1027c800440580000440a1000450a1000460a10059
:1027d80044058800440580000400a1000410a100fd
:1027e8000420a10044058800540580000480a1004d
:1027f8000490a10004a0a10054058800540580009d
:102808000440a1000450a1000460a1005405880000
:10281800540580000400a1000410a1000420a100b8
:10282800540588006405800004c0a10004d0a100fc
:1028380004e0a10064058800640580000440a1004c
:102848000450a1000460a1006405880064058000ac
:102858000400a1000410a1000420a1006405880060
:102868007405800004c0a10004d0a10004e0a10008
:1028780074058800740580000480a1000490a100fc
:1028880004a0a10074058800740580000400a1005c
:102898000410a1000420a1007405880084058000ac
:1028a80004c0a10004d0a10004e0a10084058800b0
:1028b800840580000480a1000490a10004a0a10068
:1028c80084058800840580000440a1000450a1000c
:1028d8000460a10084058800840580000400a1002c
:1028e8000410a1000420a10084058800940580003c
:1028f80004c0a10004d0a10004e0a1009405880050
:10290800940580000480a1000490a10004a0a10007
:1029180094058800940580000440a1000450a1009b
:102928000460a10094058800940580000400a100bb
:102938000410a1000420a10094058800a4058000cb
:1029480004c0a10004d0a10004e0a100a4058800ef
:10295800a40580000480a1000490a10004a0a100a7
:10296800a4058800a40580000440a1000450a1002b
:102978000460a100a4058800a40580000400a1004b
:102988000410a1000420a100a4058800b40580005b
:102998000400a1000410a1000420a100b4058800cf
:1029a800d40580000480a1000490a10004a0a10027
:1029b800d4058800d40580000440a1000450a1007b
:1029c8000460a100d4058800040680000480a100ea
:1029d8000490a10004a0a100040688000406800059
:1029e8000440a1000450a1000460a100040688006e
:1029f8001406800004c0a10004d0a10004e0a100d6
:102a080014068800140680000480a1000490a10028
:102a180004a0a10014068800140680000440a10048
:102a28000450a1000460a100140688002406800058
:102a38000480a1000490a10004a0a100240688003d
:102a4800240680000440a1000450a1000460a100f5
:102a5800240688002406800004c0a10004d0a10038
:102a680004e0a10024068800340680000480a10048
:102a78000490a10004a0a100340688003406800058
:102a88000440a1000450a1000460a100340688009d
:102a9800340680000400a1000410a1000420a10055
:102aa800340688004406800004c0a10004d0a100b8
:102ab80004e0a10044068800440680000480a100c8
:102ac8000490a10004a0a1004406880044068000e8
:102ad8000440a1000450a1000460a100440688003d
:102ae8005406800004c0a10004d0a10004e0a100a5
:102af80054068800540680000480a1000490a100b8
:102b080004a0a1005406880095c0a90095a0a900ba
:102b18009580a9009560a9009540a9009520a90075
:102b28009500a90094e0a90094c0a90094a0a90068
:102b38009480a9009460a9009440a9009420a90059
:102b48009400a90097e0a90097c0a90097a0a90040
:102b58009780a9009760a9009740a9009720a9002d
:102b68009700a90096e0a90096c0a9009680a90040
:102b78009660a9009620a9009600a90099c0a9000e
:102b880099a0a9009880a9009860a9009840a90078
:102b98009820a9009800a9009be0a9009bc0a90063
:102ba8009ba0a9009b40a9009b20a9009de0a9002b
:102bb8009dc0a9009d60a9009d40a9009d20a90075
:102bc8009cc0a9009ca0a9009c80a9009c60a900a9
:102bd8009c40a9009c20a9000080fa000000060083
:102be8000000fa00000000000080fa000000060063
:102bf8000000fa0021e1a9002021a90020c1a900b4
:102c0800040980000440a0000450a00004098800c2
:102c18000002eb00c408880084a12700e4088800ab
:102c28008780a9009780a8000080fa0000000600ad
:102c38000000fa00d4408000040078000080fa0008
:102c4800000006000000fa00c44080000402e8000a
:102c5800c44088000080fa00000006000600fa0060
:102c6800008fbe00220798001e01be001000200041
:102c78000100200066f607000002be000403be0043
:102c88002e029000050020000402530085825b009c
:102c98008402780004a0250004aab9000402780080
:102ca8000482e9002410880006a2a90007e2a8000f
:102cb8000080fa00000006000400fa00000f780007
:102cc800110798000602a8000000000034108000d8
:102cd80061026200e00f5200fcff32001e02780021
:102ce80004024200040f78001e02780014108800c5
:102cf80000000000451080000400240004826200e7
:102d0800e00f5200fbff3a001e02900014108800ea
:102d180000000000451080000400240004826200c6
:102d2800e00f5200fbff3a000642a8000000000036
:102d38003410800064026200e00f5200fcff320091
:102d480014002000040078000080fa00000006004b
:102d58000600fa0010079800210798000602a8004c
:102d6800000000003410800061026200e00f520091
:102d7800fcff32001e029000040242001407980073
:102d88001e0290000400a000140798001e02900084
:102d98001410880000000000451080000400240082
:102da80004826200e00f5200fbff3a002e029000fe
:102db8001410880000000000451080000400240062
:102dc80004826200e00f5200fbff3a000622a800ce
:102dd800000000003410800062026200e00f520020
:102de800fcff32001e0290000400a00014108800ae
:102df80000000000451080000400240004826200e6
:102e0800e00f5200fbff3a000662a80004108000a1
:102e1800040f78000002eb00c44088001400200072
:102e2800d44088000d003700c4408000e30f5200f2
:102e38000a0036000002eb00d44088000642a800d1
:102e4800000000003410800064026200e00f5200ad
:102e5800fcff32000082eb000d00370044108000b8
:102e680062026200e00f5200efff320006a2a800e3
:102e78000682a8000642a800000000003410800066
:102e880064026200e00f5200fcff32001e0278006c
:102e9800040078000080fa00000006000000fa0034
:102ea8000080fa00000006000800fa0020079800d9
:102eb800310798007bfc070014002000040f7800fd
:102ec800a4022000140798009e0090001e007800bd
:102ed80079ff070000a02500212620000100070037
:042ee800f9ff3700b7
:020000040000fa
:102eec00f03fb1000180b10006003500ee0309008f
:102efc0000000000403fb1000180b100fbff3d002d
:102f0c001000b000203fb000020035000080090026
:082f1c000000000000000600a7
:020000040000fa
:102f2400000800001800000000000000180800005d
:0c2f34000400000000000000000000008d
:020000040000fa
:0200000401f009
:04000000ffff0000fe
:020000040000fa
:0200000401f009
:04000400ffff0000fa
:020000040000fa
:0200000401f009
:04000800ffff0000f6
:020000040000fa
:0200000401f009
:04000c0001000000ef
:020000040000fa
:0200000401f009
:0400100043000000a9
:020000040000fa
:0200000401f009
:040014005f00000089
:020000040000fa
:0200000401f009
:04001800f7000000ed
:020000040000fa
:0200000401f009
:04001c00dfff000002
:00000001FF
