:020000040000fa
:080000000002040000000000f2
:020000040000fa
:10000800ea020000ea020000ea020000ea02000038
:10001800ea020000ea020000ea020000ea02000028
:10002800ea020000ea020000ea0200009a02000068
:10003800ea020000ea020000ea020000ea02000008
:10004800a2020000ea020000ea020000ba02000070
:10005800ea020000ea020000ea020000ea020000e8
:10006800ea020000ea020000ea020000ea020000d8
:10007800ea020000ea020000ea020000ea020000c8
:10008800ea020000ea020000ea020000aa020000f8
:10009800b2020000ea020000ce020000e202000004
:1000a800ea020000ea020000ea020000ea02000098
:1000b800ea020000ea020000ea020000ea02000088
:1000c800ea020000ea020000ea020000ea02000078
:1000d800ea020000ea020000ea020000ea02000068
:1000e800ea020000ea020000ea020000ea02000058
:1000f800ea020000ea020000ea020000ea02000048
:10010800ea020000ea020000ea020000ea02000037
:10011800ea020000ea020000ea020000ea02000027
:10012800ea020000ea020000ea020000ea02000017
:10013800ea020000ea020000ea020000ea02000007
:10014800ea020000ea020000ea020000ea020000f7
:10015800ea020000ea020000ea020000ea020000e7
:10016800ea020000ea020000ea020000ea020000d7
:10017800ea020000ea020000ea020000ea020000c7
:10018800ea020000ea020000ea020000ea020000b7
:10019800ea020000ea020000ea020000ea020000a7
:1001a800ea020000ea020000ea020000ea02000097
:1001b800ea020000ea020000ea020000ea02000087
:1001c800ea020000ea020000ea020000ea02000077
:1001d800ea020000ea020000ea020000ea02000067
:1001e800ea020000ea020000ea020000ea02000057
:0801f800ea020000ea02000027
:020000040000fa
:10020800ea020000ea020000ea020000ea02000036
:10021800ea020000ea020000ea020000ea02000026
:10022800ea020000ea020000ea0200009a02000066
:10023800ea020000ea020000ea020000ea02000006
:10024800a2020000ea020000ea020000ba0200006e
:10025800ea020000ea020000ea020000ea020000e6
:10026800ea020000ea020000ea020000ea020000d6
:10027800ea020000ea020000ea020000ea020000c6
:10028800ea020000ea020000ea020000aa020000f6
:10029800b2020000ea020000ce020000e202000002
:1002a800ea020000ea020000ea020000ea02000096
:1002b800ea020000ea020000ea020000ea02000086
:1002c800ea020000ea020000ea020000ea02000076
:1002d800ea020000ea020000ea020000ea02000066
:1002e800ea020000ea020000ea020000ea02000056
:1002f800ea020000ea020000ea020000ea02000046
:10030800ea020000ea020000ea020000ea02000035
:10031800ea020000ea020000ea020000ea02000025
:10032800ea020000ea020000ea020000ea02000015
:10033800ea020000ea020000ea020000ea02000005
:10034800ea020000ea020000ea020000ea020000f5
:10035800ea020000ea020000ea020000ea020000e5
:10036800ea020000ea020000ea020000ea020000d5
:10037800ea020000ea020000ea020000ea020000c5
:10038800ea020000ea020000ea020000ea020000b5
:10039800ea020000ea020000ea020000ea020000a5
:1003a800ea020000ea020000ea020000ea02000095
:1003b800ea020000ea020000ea020000ea02000085
:1003c800ea020000ea020000ea020000ea02000075
:1003d800ea020000ea020000ea020000ea02000065
:1003e800ea020000ea020000ea020000ea02000055
:0803f800ea020000ea02000025
:020000040000fa
:10040000cf8120000e7f24000e0188000000000034
:10041000000020000000e000020032000001200087
:10042000200288000c000700206c21000100200041
:1004300011000700000020000000e0000200320070
:10044000000002000000000088160200000000000a
:100450000040da000000fe004440a9000000200037
:100460000000e0000300320000002000a00188002e
:100470004440a80000000600910188008000780038
:100480000000eb0015003700e280400032a0b4000d
:100490009101ba00e280400032a0b4009102ba009b
:1004a000e280400032a0b4000002eb00472bde00e7
:1004b000f507b200602ce10004003a000059eb009f
:1004c0008301e900fdff3e00040037006128e100e0
:1004d000010032000082eb00040007001101ba00a5
:1004e0000200e000e8ff3a00000006003159ba00bf
:1004f0008301e9000c0032002159ba008301e900b0
:10050000080032000400e00003003a00e2804000ee
:1005100032a0b400f5ff370011d9ba008301e90019
:10052000faff3a008100e800e180400032a0b40008
:10053000000006000000fa008460a9000080fa00b4
:10054000004006000000fa008500a9000080fa00c3
:10055000004006000000fa008760a9000080fa0051
:10056000004006000000fa008780a9000080fa0021
:1005700000400600801f78000200fa009560a90084
:100580008560a90030118000004f78009560a800b8
:100590000080fa004f00780000400600801f7800bd
:1005a0000200fa0097c0a90087c0a900b01180001e
:1005b000004f780097c0a8000080fa004f00780034
:1005c000004006000000fa0087e0a9000080fa0061
:1005d000004006000040da000000fe00839f680033
:1005e0000100e00002003d0060001000e080180003
:1005f0000300e00002003d0060011100e0811900ed
:10060000050007004f00e00002003b006000100002
:10061000e0801800000006006022b80006022000fa
:100620000000d0008180d2000482d2008582d200f6
:100630000000a0000202520083825a000300310031
:100640000202420083824a000000a1000603e90082
:10065000f3ff3a0000000600889fbe008a9fbe009c
:1006600030044200b0844a0030054b0090854b00b6
:100670006000b1000898be000a90be000440e1008e
:1006800005c8e10006d0e10007d8e1000200310012
:10069000680040001008e8004f05be004f04be008f
:1006a00000000600889fbe008a9fbe003004be0086
:1006b0002005be000418540005985c0006185d0073
:1006c00007985d00110020000440e10005c8e1002a
:1006d00006d0e10007d8e100010039008000eb00fe
:1006e000108810004f05be004f04be000000060039
:1006f0001200fa00889fbe008a9fbe008c9fbe0039
:10070000e0b79f00f1b79f0082bf9f0093bf9f009b
:100710000605be000404be000000eb00d0b79f0039
:10072000c0b79f00b0b79f00a0b79f0090b79f00d1
:100730000006eb005fb19700cfb097008201410047
:100740003fb097000200e00004003d0037000700c2
:100750007e805700c0ff070003003700330007000a
:100760007e805700cfff0700dfb697000d00e00046
:100770000c0035006fb29700ffb297000fbb9700d7
:100780009fbb970010002000010020006011b800fe
:10079000000272008182720002037300838373007f
:1007a0001b0007000c06e80001042000810f560022
:1007b000e0ff3a000d00e00004003d000802be002a
:1007c0000a03be007e805700a3ff07005fa89700c2
:1007d0000000e00005003a001fb29700afb297009a
:1007e0003fb39700cfb39700090007006fb09700a1
:1007f000ffb097000fb997009fb997004f06be0052
:100800004f05be004f04be000080fa000000060045
:100810000100070000000600a4b79f00b5b79f00c5
:10082000c6b79f00d7b79f00000006004f09de0043
:1008300082817100b3b79f004f01de0081804000cc
:1008400082807000a1b79f008fb097004f09de0033
:10085000000040000200700090b79f007fa8970042
:100860004f01de00818040008280700081b79f00d0
:100870000d0007004f3ade00000040000400700049
:10088000f0af9f00080007000402420085824a0082
:1008900006034b0087834b00dfff07000802be0002
:1008a0000a03be00000006002fb29700bfb29700f7
:1008b0004fb39700dfb3970000000600881f780051
:1008c00018002000881f780089ff07008f87e90043
:1008d0004f04780000000600801feb0084ff070033
:1008e0008f87e90000000600889fbe008a9fbe0037
:1008f000e00f5000e08f5800e00f5900e08f5900e2
:100900000c003d006044b8006055b8000000540081
:1009100081805c0002015d0083815d001800200081
:100920001500070008003d00180007000004eb0058
:10093000050037000004eb000f00070002003d0037
:100940001200070018002000dcff07000800e0008c
:10095000060032006022b8006033b8000000520088
:1009600081805a0002015b0083815b004f05be005d
:100970004f04be0000000600e00f5200e08f5a0056
:10098000e00f5b00e08f5b00000006006044b800f1
:100990006055b8000402540085825c0006035d00c7
:1009a00087835d0000000600889fbe008a9fbe000e
:1009b0008c1f7800e00f5000e08f5800e00f5900c6
:1009c000e08f59000d003d006044b8006055b8004c
:1009d0000000540081805c0002015d0083815d00a5
:1009e0001c0020000820e10009a8e1000ab0e10095
:1009f0000bb8e1000d003d00080037000006eb00d9
:100a0000e00f5200e08f5a00e00f5b00e08f5b00c8
:100a100006003d006044b8006055b8000402540070
:100a200085825c0006035d0087835d00aaff0700e6
:100a30000c00e000060032006022b8006033b8000d
:100a40000000520081805a0002015b0083815b003c
:100a50004f0678004f05be004f04be0000000600a0
:020000040000fa
:100a60000600fa00004f780012079800230798004c
:100a70001e407800e14f500024003a001e00900014
:100a8000ae009000490007004011880021e2a90053
:100a900022a2a900101180000060a1000070a10036
:100aa000101188002362a90023c2a90023a2a90073
:100ab00023e2a90022c2a90022e2a9002002a90083
:100ac000001180000010a1000020a100001188008a
:100ad0002062a8002082a90020a2a90020c2a900ab
:100ae00020e2a900001180000080a1000090a10078
:100af000001188002162a9002182a90021a2a90079
:100b000021e2a8002342a800260037001e407800fa
:100b1000e34f500023003a001e009000ae0090000a
:100b200022000700c011880031e2a90032a2a9000a
:100b3000901180000060a1000070a1009011880059
:100b40003362a90033c2a90033a2a80033e2a9008e
:100b500032c2a90032e2a9003002a900801180004f
:100b60000010a1000020a100801188003062a800c0
:100b70003082a90030a2a90030c2a90030e2a90049
:100b8000801180000080a1000090a10080118800e9
:100b90003162a9003182a90031a2a90031e2a80086
:100ba0003342a8000080fa00000006000400fa00aa
:100bb000008fbe001e00be0002d4200033002000c3
:100bc000820f5000838f58004200320002d4200070
:100bd00033002000820f5000838f58001b003e001e
:100be00002b0240003002000820f5000838f5800c1
:100bf0003e00320002b0240003002000820f5000ab
:100c0000838f580006003e00025822000300200097
:100c1000820f5000838f58003600320037003700b3
:100c200002102e0003002000820f5000838f580016
:100c30002c00320002202c0013002000820f5000f4
:100c4000838f5800250032002c00370002a82100b5
:100c500063002000820f5000838f5800190032007b
:100c600002a8210063002000820f5000838f5800eb
:100c700006003e0002092d0033002000820f5000c4
:100c8000838f5800110032001c00370002122a0026
:100c900073002000820f5000838f5800070032003d
:100ca00002242400f3002000820f5000838f58009c
:100cb00012003a00900020001a0037003001200096
:100cc0001800370080012000160037007002200055
:100cd00014003700100320001200370060052000c8
:100ce00010003700d00a20000e00370080202000be
:100cf0000c003700104120000a0037001e00be0023
:100d00006011b8000203be000002be0000682900a6
:100d1000810920006011b800f3fe07000000780090
:100d20000000e9000080fa00000006000600fa005a
:100d3000004f780012079800230798001e407800a3
:100d4000e14f500007003a0021e2a9001e00900088
:100d5000ae00900095ff07004011880021e2a80036
:100d60000600370031e2a9001e009000ae0090009e
:100d70008eff0700c011880031e2a8000080fa0051
:100d8000000006000400fa00204798002e40900062
:100d9000e34f50000b003a0002003700b011800012
:100da000004f780090118000610060000000e000ba
:100db000faff3a000800370030118000004f780039
:100dc0000100370000000000101180006100600089
:100dd0000000e000f8ff3a000080fa000000060082
:100de0000200fa00004f7800114798001e4078007a
:100df000e14f50000a003a0000000000111180008d
:100e000000202000008060000000e000fbff3a00ae
:100e10001e4090000080fb00201188000c0037006d
:100e20001e407800e34f500009003a000000000027
:100e30009111800000202000008060000000e00090
:100e4000fbff3a001e4090000080fb00a0118800cc
:100e50000080fa00000006000400fa00004f78004d
:100e6000110798001e009000104078008040780024
:100e70001e407800daff07001e0090001040780046
:100e80000080fb000000ea004f00de000040780018
:100e90009e0090008100e800110798000004e00027
:100ea000f0ff3a000080fa00000006000800fa0097
:100eb0002047980021079800320798000000eb00b7
:100ec000000f7800160037002e409000e14f5000d0
:100ed00008003a001e007800ae009000008040003c
:100ee000104078008040780010c0b300bcff0700bd
:100ef0000a0037002e409000e34f500007003a00f0
:100f00001e007800ae009000008040001040780085
:100f10008040780030c0b300b1ff07001e0fe8002a
:100f20009e0078003e009000808f5000e6ff390060
:100f30000080fa00000006000e00fa00600798002a
:100f40000000eb00000f78006e0090000000e00051
:100f500008003d006e0090000000ea006007980065
:100f6000308120001e004000d1c2b300014878004b
:100f70001e0fe800ee0090000071220000017800d2
:100f8000110009008200d800100798009e00900010
:100f9000008f2d000088b900800078006e0090005e
:100fa00080804000803e2000000178001100090090
:100fb0008200d800200798009e009000008f2d002e
:100fc0000088b90000017800ae00900080c12f00b9
:100fd0000088b90000007800800041006e00900099
:100fe00080804000400620000001780011000900c8
:100ff0008200d800300798009e009000008f2d00de
:101000000088b90000017800ae00900080c12f0078
:101010000088b90000007800800041006e00900058
:1010200000814000be009000c0f92f000088b90088
:101030000000780080004100a0002000000178003e
:10104000110009008200d800400798009e0090001f
:10105000008f2d000088b90000017800ae009000dc
:1010600080c12f000088b900000078008000410096
:101070006e00900000814000ce00900060ff2f00c5
:101080000088b90080017800be009000c0f92f00f0
:101090000088b90000007800008041000000410095
:1010a000500798001e009000004078000043b000f8
:1010b00080407800308120001e0040000148780008
:1010c0001e0fe8002e009000004078000043b000a2
:1010d00080407800308120001e00400001487800e8
:1010e0001e0fe8003e009000004078000043b00072
:1010f00080407800308120001e00400001487800c8
:101100001e0fe8004e009000004078000043b00041
:1011100080407800308120001e00400001487800a7
:101120001e0fe8005e009000004078000043b00011
:1011300080407800308120001e0040000148780087
:101140001e0fe800308120001e0040008040eb00b0
:10115000014878001e0fe800308120000080fa006e
:10116000000006002e00fa00889fbe00501798006d
:10117000611798000000eb00000f78005e109000ef
:10118000ee109000e00f5000e08f58000b003d0083
:101190005e109000ee10900060001000e0801800db
:1011a0005017980061179800408020001e004000f2
:1011b000d1c2b300014878001e0fe8005e10900015
:1011c000ee10900002a02c00a3b9230003fd07003d
:1011d00010079800210798001e009000ae009000b4
:1011e000026023000289b9000201780053462c00f6
:1011f0000382b900840178000301410003602300e9
:101200000300b80001014100820078005e119000e7
:10121000ee119000000041008180490002102e0074
:10122000535f2000edfc070030079800410798004d
:101230001e009000ae009000026023000289b900f9
:101240000202780052462c000281b90002017800a7
:1012500002024200026023000201b80003024200c1
:10126000840178003e009000ce00900004f0210040
:10127000048ab90004027800a5a02f000583b900f4
:10128000860278000502420005f021000500b80042
:10129000010242008400780002014000838148007e
:1012a0005e109000ee109000020040008380480025
:1012b0000268290083092000c8fc07005007980035
:1012c000610798001e009000ae00900002602300ad
:1012d0000289b9000202780052462c000281b9004e
:1012e0000201780002024200026023000201b800fd
:1012f00003024200840178003e009000ce0090007e
:1013000004f02100048ab90004027800a5a02f008f
:101310000583b900860278000502420005f021002d
:101320000500b8000102420084007800020140007c
:10133000838148005e109000ee1090000202400091
:10134000838248005e009000ee0090000298260024
:101350000289b9000201780073f62f000383b900f7
:101360008601780003014100039826000300b800bd
:10137000010141008200780004004000858048009f
:1013800002242400f300200094fc0700700798005a
:10139000010f98001e009000ae0090000260230034
:1013a0000289b9000202780052462c000281b9007d
:1013b0000201780002024200026023000201b8002c
:1013c00003024200840178003e009000ce009000ad
:1013d00004f02100048ab90004027800a5a02f00bf
:1013e0000583b900860278000502420005f021005d
:1013f0000500b800010242008400780002014000ac
:10140000838148005e109000ee10900002034000bf
:10141000838348007e0090008e08900002dc2b0041
:101420000289b9000202780002ff2f000281b90090
:10143000020178000202420002dc2b000201b80027
:1014400003024200840178005e009000ee009000ec
:1014500004982600048ab9000402780075f62f006b
:101460000584b9008802780005024200059826002c
:101470000500b8000102420084007800020040002c
:10148000838048000600400087804800026a2800e8
:101490001300200051fc0700100f9800210f980046
:1014a0001e009000ae009000026023000289b90087
:1014b0000202780052462c000281b9000201780035
:1014c00002024200026023000201b800030242004f
:1014d000840178003e009000ce00900004f02100ce
:1014e000048ab90004027800a5a02f000583b90082
:1014f000860278000502420005f021000500b800d0
:10150000010242008400780002014000838148000b
:101510005e109000ee1090000203400083834800ac
:101520007e0090008e08900002dc2b000289b9003a
:101530000202780002ff2f000281b9000201780048
:101540000202420002dc2b000201b800030242004a
:10155000840178005e009000ee0090000498260060
:10156000048ab9000402780075f62f000584b900da
:101570008802780005024200059826000500b800a0
:10158000010242008400780002004000838048008d
:1015900006024000878248001e089000ae089000b6
:1015a000029627000289b90002017800e3ff2f00ac
:1015b0000383b900860178000301410003962700e8
:1015c0000300b800010141008200780004004000df
:1015d000858048000271220003002000fffb070005
:1015e000300f9800410f98001e009000ae00900050
:1015f000026023000289b9000202780052462c00e2
:101600000281b90002017800020242000260230058
:101610000201b80003024200840178003e009000fd
:10162000ce00900004f02100048ab9000402780082
:10163000a5a02f000583b9008602780005024200ac
:1016400005f021000500b800010242008400780086
:1016500002014000838148005e109000ee1090006f
:1016600002034000838348007e0090008e089000b3
:1016700002dc2b000289b9000202780002ff2f0071
:101680000281b900020178000202420002dc2b0054
:101690000201b80003024200840178005e0090005d
:1016a000ee00900004982600048ab9000402780035
:1016b00075f62f000584b900880278000502420003
:1016c000059826000500b800010242008400780059
:1016d00002004000838048000603400087834800e2
:1016e0003e089000ce089000028f2d000289b900bc
:1016f000020278000081eb000281b900020178004b
:1017000002024200028f2d000201b80003024200d3
:10171000840178001e089000ae089000049627000f
:10172000048ab90004027800e5ff2f000584b9009f
:101730008802780005024200059627000500b800df
:1017400001024200840078000200400083804800cb
:101750000600400087804800823e200003002000f1
:101760009efb0700500f9800610f98001e0090002c
:10177000ae009000026023000289b90002027800e6
:1017800052462c000281b900020178000202420098
:10179000026023000201b8000302420084017800c5
:1017a0003e009000ce00900004f02100048ab900b1
:1017b00004027800a5a02f000583b90086027800f6
:1017c0000502420005f021000500b80001024200b8
:1017d0008400780002014000838148005e10900080
:1017e000ee10900002034000838348007e009000ca
:1017f0008e08900002dc2b000289b90002027800fa
:1018000002ff2f000281b9000201780002024200ab
:1018100002dc2b000201b8000302420084017800c0
:101820005e009000ee00900004982600048ab90043
:101830000402780075f62f000584b900880278004c
:1018400005024200059826000500b800010242008a
:1018500084007800020040008380480006034000b6
:10186000878348003e089000ce089000028f2d002c
:101870000289b900020278000081eb000281b90000
:101880000201780002024200028f2d000201b8001e
:1018900003024200840178001e089000ae08900008
:1018a00004962700048ab90004027800e5ff2f009f
:1018b0000584b900880278000502420005962700d9
:1018c0000500b800010242008400780002004000d8
:1018d0008380480006024000878248005e0890002e
:1018e000ee08900082c12f000289b9000201780041
:1018f0008081eb000383b900860178000301410079
:1019000083c12f000300b80001014100820078006c
:1019100004004000858048004206200003002000ab
:101920002efb0700700f9800011798001e00900012
:10193000ae009000026023000289b9000202780024
:1019400052462c000281b9000201780002024200d6
:10195000026023000201b800030242008401780003
:101960003e009000ce00900004f02100048ab900ef
:1019700004027800a5a02f000583b9008602780034
:101980000502420005f021000500b80001024200f6
:101990008400780002014000838148005e109000be
:1019a000ee10900002034000838348007e00900008
:1019b0008e08900002dc2b000289b9000202780038
:1019c00002ff2f000281b9000201780002024200ea
:1019d00002dc2b000201b8000302420084017800ff
:1019e0005e009000ee00900004982600048ab90082
:1019f0000402780075f62f000584b900880278008b
:101a000005024200059826000500b80001024200c8
:101a100084007800020040008380480006034000f4
:101a2000878348003e089000ce089000028f2d006a
:101a30000289b900020278000081eb000281b9003e
:101a40000201780002024200028f2d000201b8005c
:101a500003024200840178001e089000ae08900046
:101a600004962700048ab90004027800e5ff2f00dd
:101a70000584b90088027800050242000596270017
:101a80000500b80001024200840078000200400016
:101a90008380480006034000878348007e0890004a
:101aa0008e109000c2f92f000289b900020278005e
:101ab0000081eb000281b9000201780002024200bd
:101ac000c2f92f000201b80003024200840178002d
:101ad0005e089000ee08900084c12f00048ab900cf
:101ae000040278008082eb000584b9008802780047
:101af0000502420085c12f000500b8000102420026
:101b00008400780002004000838048000600400006
:101b100087804800a200200003002000affa0700e1
:101b200010179800211798001e009000ae0090003a
:101b3000026023000289b9000202780052462c009c
:101b40000281b90002017800020242000260230013
:101b50000201b80003024200840178003e009000b8
:101b6000ce00900004f02100048ab900040278003d
:101b7000a5a02f000583b900860278000502420067
:101b800005f021000500b800010242008400780041
:101b900002014000838148005e109000ee1090002a
:101ba00002034000838348007e0090008e0890006e
:101bb00002dc2b000289b9000202780002ff2f002c
:101bc0000281b900020178000202420002dc2b000f
:101bd0000201b80003024200840178005e00900018
:101be000ee00900004982600048ab90004027800f0
:101bf00075f62f000584b9008802780005024200be
:101c0000059826000500b800010242008400780013
:101c1000020040008380480006034000878348009c
:101c20003e089000ce089000028f2d000289b90076
:101c3000020278000081eb000281b9000201780005
:101c400002024200028f2d000201b800030242008e
:101c5000840178001e089000ae08900004962700ca
:101c6000048ab90004027800e5ff2f000584b9005a
:101c70008802780005024200059627000500b8009a
:101c80000102420084007800020040008380480086
:101c900006034000878348007e0890008e10900065
:101ca000c2f92f000289b900020278000081eb001e
:101cb0000281b9000201780002024200c2f92f003d
:101cc0000201b80003024200840178005e0890001f
:101cd000ee08900084c12f00048ab9000402780045
:101ce0008082eb000584b90088027800050242007a
:101cf00085c12f000500b800010242008400780071
:101d000002004000838048000602400087824800ad
:101d10001e109000ae10900062ff2f000289b900e3
:101d2000020178008081eb000383b900860178000e
:101d30000301410063ff2f000300b80001014100cf
:101d40008200780004004000858048003017980029
:101d5000411798001e009000ae00900000407800ef
:101d60000043b00080407800408020001e0040000a
:101d7000014878001e0fe8003e009000ce00900061
:101d8000004078000043b000804078004080200090
:101d90001e004000014878001e0fe8005e00900021
:101da000ee009000004078000043b00080407800d2
:101db000408020001e004000014878001e0fe8000f
:101dc0007e0090008e089000004078000043b00034
:101dd00080407800408020001e00400001487800cc
:101de0001e0fe8001e089000ae089000004078002a
:101df0000043b00080407800408020001e0040007a
:101e0000014878001e0fe8003e089000ce089000c0
:101e1000004078000043b0008040780040802000ff
:101e20001e004000014878001e0fe8005e08900088
:101e3000ee089000004078000043b0008040780039
:101e4000408020001e004000014878001e0fe8007e
:101e50007e0890008e109000004078000043b00093
:101e600080407800408020001e004000014878003b
:101e70001e0fe8001e109000ae1090000040780089
:101e80000043b00080407800408020001e004000e9
:101e9000014878001e0fe8003e109000ce10900020
:101ea000004078000043b00080407800408020006f
:101eb0001e004000014878001e0fe800408020000e
:101ec0001e0040008040eb00014878001e0fe80033
:101ed000408020004f04be000080fa000000060091
:101ee0000200fa00000f78001e00780012fc0700c4
:101ef0008000780010c0b300d7fb07000080fa0014
:101f0000000006000400fa00008fbe001e00be00a4
:101f100094fc07008000780010c0b300cefb0700df
:101f20000080fa00000006000000fa005f000700d1
:101f30002700070017000700440007008e00070075
:101f4000bd0007005001070002202c0013002000f4
:101f500010c0b300c2fa070002122a00730020006a
:101f600030c0b300befa0700f41e2700757c2100c4
:101f7000462c270017e8230000a82100610020005c
:101f8000d002070005e1a8001fe1a8000080fa00c8
:101f9000000006000000fa0005e1a9000421a900e4
:101fa00004c1a900200880000040a0000050a0004b
:101fb000200888000021ef00e03020001008880091
:101fc0008460a9009460a8000080fa000000060068
:101fd0000000fa001fe1a9001e21a9001e61a9004e
:101fe0001ec1a900f00880000040a0000050a00021
:101ff000f00888001421ef00b0612000d0088800ac
:102000008760a9009760a8000080fa000000060021
:102010000000fa0021e1a9002021a90020c1a900a7
:10202000000980000040a0000050a00000098800c6
:102030001421ef0080a12700d00888008780a90024
:102040009780a8000080fa00000006000000fa0057
:1020500013e1a90011e1a9001061a8001021a90055
:1020600010c1a900800880000040a0000050a0001e
:10207000800888000a21ef000621ef0020002000e0
:1020800070088800c0272600600888008500a90025
:102090009500a8000080fa00000006000000fa0089
:1020a00011e1a8000080fa00000006000000fa001c
:1020b000413a800000fc2f0000806000403a880018
:1020c000103a80000080a1000090a10000a0a100b3
:1020d000103a88004207a80000000000103a800073
:1020e000610060000000e000fcff3a006009200091
:1020f000303a8800203a80000060a1000070a10002
:10210000203a8800213a800000fe2f000080600005
:102110005000b300203a8800203a800000c0a1009f
:1021200000d0a10000e0a100203a8800103a800011
:102130000080a0000090a10000a0a100103a88003b
:102140004207a80000000000103a80006100600013
:102150000000e000fcff3a0000000000113a80009f
:1021600000022000008060000000e000fbff320061
:102170000080fa00000006000000fa00213580000f
:1021800000fe2f00008060005000b3002035880062
:102190003136800000fe2f00008060003000b30068
:1021a000303688003135800000fe2f00008060004e
:1021b0003000b300303588001136800000fe2f005b
:1021c000008060005000b30010368800e1348000c9
:1021d000f00f2e0080806000008021000100700060
:1021e000e0348800e134800000fe2f0000806000b1
:1021f0009001b300e034880001358000f00f2e001c
:1022000080806000006021000100700000358800bf
:102210000135800000fe2f00008060007001b300d7
:102220000035880000482800e1012000c7020700af
:102230000080fa00000006000000fa0021e3a90077
:102240002c03a8002c23a8002c43a8002c63a80072
:102250002c83a8002ca3a8002cc3a8002ce3a80062
:102260002d03a800c801a900c881a900c821a900a0
:10227000c8a1a900c841a900c8c1a900c002a900fd
:102280006040a9006840a900c022a9006060a900c0
:102290006860a900c042a800c062a80063a0a900ad
:1022a0006ba0a900c082a8006000a9006800a90076
:1022b000c0e2a900c102a800c122a800c142a90031
:1022c000c802a9006080a9006880a900c822a900ee
:1022d00060a0a90068a0a900c842a90060c0a90028
:1022e00068c0a900c862a80060e0a90068e0a90071
:1022f000c882a8006020a9006820a900c8a2a80080
:102300006360a9006b60a900c8c2a9006300a900ae
:102310006b00a900c8e2a90062e0a9006ae0a90078
:10232000c902a90062c0a9006ac0a900c922a90007
:1023300062a0a9006aa0a900c942a9006200a90080
:102340006a00a900c962a90061e0a90069e0a900ca
:10235000c982a90061c0a90069c0a900c9a2a900d9
:1023600061a0a90069a0a900c9c2a9006180a90053
:102370006980a900c9e2a9006160a9006960a9009b
:10238000d002a8006100a9006900a900d022a8001d
:102390006120a9006920a900d042a8006140a900dd
:1023a0006940a900d062a8006380a9006b80a900e1
:1023b000d082a8006320a9006b20a900d0a2a900a8
:1023c0006340a9006b40a900d0c2a8006240a900e8
:1023d0006a40a900d0e2a8006220a9006a20a900f2
:1023e000d102a8006280a9006a80a900d122a800b9
:1023f0006260a9006a60a900c402a900c422a90001
:10240000c462a900c482a900c4e2a900c502a9004f
:10241000c522a900c542a900cc02a900cc22a9006e
:10242000cc42a900cc62a900cc82a900cca2a90010
:10243000ccc2a900cce2a900cd02a900cd22a900fe
:10244000cd42a900cd62a900cd82a900cda2a900ec
:10245000cdc2a900cde2a900d402a900d422a900ce
:10246000d442a900d462a900d482a900d4a2a900b0
:10247000d4c2a900d4e2a900d502a900d522a9009e
:102480000080fa00000006000000fa0083e0a900c6
:102490008200a90085c0a90085a0a9008580a900a7
:1024a0008560a9008540a9008520a9008500a900b4
:1024b00084e0a90084c0a90084a0a9008480a900a8
:1024c0008460a9008440a9008420a9008400a90098
:1024d00087e0a90087c0a90087a0a9008780a9007c
:1024e0008760a9008740a9008720a9008700a9006c
:1024f00086e0a90086c0a9008680a9008660a900a0
:102500008640a9008620a9008600a90089c0a900ec
:1025100089a0a9008880a9008860a9008840a90036
:102520008820a9008800a9008be0a9008bc0a90021
:102530008ba0a9008b40a9008b20a9008de0a900e9
:102540008dc0a9008d60a9008d40a9008d20a90033
:102550008cc0a9008ca0a9008c80a9008c60a90067
:102560008c40a9008c20a9002005800000c0a1009b
:1025700000d0a10000e0a100200588002005800017
:102580000080a1000090a10000a0a100200588000b
:10259000200580000040a1000050a1000060a100c3
:1025a00020058800200580000000a1000010a10087
:1025b0000020a100200588003005800000c0a10097
:1025c00000d0a10000e0a1003005880030058000a7
:1025d0000080a1000090a10000a0a10030058800ab
:1025e000300580000040a1000050a1000060a10063
:1025f00030058800300580000000a1000010a10017
:102600000020a100300588004005800000c0a10026
:1026100000d0a10000e0a100400588004005800036
:102620000080a1000090a10000a0a100400588004a
:10263000400580000040a1000050a1000060a10002
:1026400040058800400580000000a1000010a100a6
:102650000020a10040058800500580000080a100f6
:102660000090a10000a0a100500588005005800046
:102670000040a1000050a1000060a10050058800aa
:10268000500580000000a1000010a1000020a10062
:10269000500588006005800000c0a10000d0a100a6
:1026a00000e0a10060058800600580000040a100f6
:1026b0000050a1000060a100600588006005800056
:1026c0000000a1000010a1000020a100600588000a
:1026d0007005800000c0a10000d0a10000e0a100b2
:1026e00070058800700580000080a1000090a100a6
:1026f00000a0a10070058800700580000000a10006
:102700000010a1000020a100700588008005800055
:1027100000c0a10000d0a10000e0a1008005880059
:10272000800580000080a1000090a10000a0a10011
:1027300080058800800580000040a1000050a100b5
:102740000060a10080058800800580000000a100d5
:102750000010a1000020a1008005880090058000e5
:1027600000c0a10000d0a10000e0a10090058800f9
:10277000900580000080a1000090a10000a0a100b1
:1027800090058800900580000040a1000050a10045
:102790000060a10090058800900580000000a10065
:1027a0000010a1000020a10090058800a005800075
:1027b00000c0a10000d0a10000e0a100a005880099
:1027c000a00580000080a1000090a10000a0a10051
:1027d000a0058800a00580000040a1000050a100d5
:1027e0000060a100a0058800a00580000000a100f5
:1027f0000010a1000020a100a0058800b005800005
:102800000000a1000010a1000020a100b005880078
:10281000d00580000080a1000090a10000a0a100d0
:10282000d0058800d00580000040a1000050a10024
:102830000060a100d0058800000680000080a10093
:102840000090a10000a0a100000688000006800002
:102850000040a1000050a1000060a1000006880017
:102860001006800000c0a10000d0a10000e0a1007f
:1028700010068800100680000080a1000090a100d2
:1028800000a0a10010068800100680000040a100f2
:102890000050a1000060a100100688002006800002
:1028a0000080a1000090a10000a0a10020068800e7
:1028b000200680000040a1000050a1000060a1009f
:1028c000200688002006800000c0a10000d0a100e2
:1028d00000e0a10020068800300680000080a100f2
:1028e0000090a10000a0a100300688003006800002
:1028f0000040a1000050a1000060a1003006880047
:10290000300680000000a1000010a1000020a100fe
:10291000300688004006800000c0a10000d0a10061
:1029200000e0a10040068800400680000080a10071
:102930000090a10000a0a100400688004006800091
:102940000040a1000050a1000060a10040068800e6
:102950005006800000c0a10000d0a10000e0a1004e
:1029600050068800500680000080a1000090a10061
:1029700000a0a1005006880095c0a90095a0a9005c
:102980009580a9009560a9009540a9009520a9000f
:102990009500a90094e0a90094c0a90094a0a90002
:1029a0009480a9009460a9009440a9009420a900f3
:1029b0009400a90097e0a90097c0a90097a0a900da
:1029c0009780a9009760a9009740a9009720a900c7
:1029d0009700a90096e0a90096c0a9009680a900da
:1029e0009660a9009620a9009600a90099c0a900a8
:1029f00099a0a9009880a9009860a9009840a90012
:102a00009820a9009800a9009be0a9009bc0a900fc
:102a10009ba0a9009b40a9009b20a9009de0a900c4
:102a20009dc0a9009d60a9009d40a9009d20a9000e
:102a30009cc0a9009ca0a9009c80a9009c60a90042
:102a40009c40a9009c20a9000080fa00000006001c
:102a50000000fa00000000000080fa0000000600fc
:102a60000000fa0021e1a9002021a90020c1a9004d
:102a7000000980000040a0000050a000000988006c
:102a80001821ef0080a12700e00888008780a900b6
:102a90009780a8000080fa00000006000000fa00fd
:102aa000104080000080fa00000006000000fa00dc
:102ab000004080000000e800004088000080fa002c
:102ac000000006000600fa00008fbe0022079800f2
:102ad0001e01be001000200001002000cef60700fd
:102ae0000001be002e0090008000eb0000005100ad
:102af000818059008000780000a025000088b9007e
:102b0000000078000080e9002010880006a2a900db
:102b100007e2a8000080fa00000006000400fa00a6
:102b2000000f7800110798000602a80000000000be
:102b300030108000610060000000e000fcff320007
:102b40001e00780000004000000f78009e00780012
:102b500011108800000000004110800000002400d7
:102b6000008060000000e000fbff3a009e00900043
:102b700011108800000000004110800000002400b7
:102b8000008060000000e000fbff3a000642a80061
:102b90000000000030108000640060000000e000d1
:102ba000fcff3200100020000080fa000000060048
:102bb0000600fa0010079800210798000602a800f6
:102bc0000000000030108000610060000000e000a4
:102bd000fcff32001e00900000004000100798002b
:102be0001e0090000000a000100798009e009000ba
:102bf0001110880000000000411080000000240037
:102c0000008060000000e000fbff3a00ae00900092
:102c10001110880000000000411080000000240016
:102c2000008060000000e000fbff3a000622a800e0
:102c30000000000030108000620060000000e00032
:102c4000fcff32001e0090000000a0001010880061
:102c5000000000004110800000002400008060009f
:102c60000000e000fbff3a000662a8000000000040
:102c700030108000680060000000e000fcff3a00b7
:102c800000108000000f78000028ef0010002000e6
:102c9000104088000c00370000408000e30f500017
:102ca000090036000228ef000642a80000000000dc
:102cb00030108000640060000000e000fcff320083
:102cc0000080eb000d0037004010800062006000c3
:102cd0000000e000f0ff320006a2a8000682a80073
:102ce0000642a80000000000301080006400600070
:102cf0000000e000fcff32001e0078000080fa00b7
:102d0000000006000000fa000080fa000000060043
:102d10000800fa00200798003107980082fc07009d
:102d200010002000000f7800a0022000100798007b
:102d30009e0090001e00780078ff070000a025008c
:0c2d40002126200001000700f9ff3700e9
:020000040000fa
:102d4c00f03fb1000180b10006003500ee03090030
:102d5c0000000000403fb1000180b100fbff3d00ce
:102d6c001000b000203fb0000200350000800900c8
:082d7c00000000000000060049
:020000040000fa
:102d84000408000018000000000000000008000013
:0c2d94000400000000000000000000002f
:020000040000fa
:0200000401f009
:04000000cf0000002d
:020000040000fa
:0200000401f009
:04000400cf00000029
:020000040000fa
:0200000401f009
:0400080007000000ed
:020000040000fa
:0200000401f009
:04000c0001000000ef
:020000040000fa
:0200000401f009
:0400100043000000a9
:020000040000fa
:0200000401f009
:040014005f00000089
:020000040000fa
:0200000401f009
:04001800f7000000ed
:020000040000fa
:0200000401f009
:04001c00dfff000002
:00000001FF
